{
  "_format": "hh-sol-artifact-1",
  "contractName": "EthBrewDAO",
  "sourceName": "contracts/EthBrewDAO.sol",
  "abi": [
    {
      "inputs": [
        {
          "internalType": "uint256",
          "name": "numTokens",
          "type": "uint256"
        },
        {
          "internalType": "address payable",
          "name": "_operationalWalletAddress",
          "type": "address"
        },
        {
          "internalType": "uint256",
          "name": "_initialTokenPrice",
          "type": "uint256"
        },
        {
          "internalType": "uint256",
          "name": "_maxTokenLimitPerHolder",
          "type": "uint256"
        }
      ],
      "stateMutability": "payable",
      "type": "constructor"
    },
    {
      "anonymous": false,
      "inputs": [
        {
          "indexed": true,
          "internalType": "address",
          "name": "owner",
          "type": "address"
        },
        {
          "indexed": true,
          "internalType": "address",
          "name": "spender",
          "type": "address"
        },
        {
          "indexed": false,
          "internalType": "uint256",
          "name": "value",
          "type": "uint256"
        }
      ],
      "name": "Approval",
      "type": "event"
    },
    {
      "anonymous": false,
      "inputs": [
        {
          "indexed": true,
          "internalType": "address",
          "name": "memberAddress",
          "type": "address"
        }
      ],
      "name": "BrewDAOMemberAdded",
      "type": "event"
    },
    {
      "anonymous": false,
      "inputs": [
        {
          "indexed": true,
          "internalType": "address",
          "name": "to",
          "type": "address"
        },
        {
          "indexed": false,
          "internalType": "uint256",
          "name": "amount",
          "type": "uint256"
        }
      ],
      "name": "BrewTokenTransferred",
      "type": "event"
    },
    {
      "anonymous": false,
      "inputs": [
        {
          "indexed": true,
          "internalType": "address",
          "name": "previousOwner",
          "type": "address"
        },
        {
          "indexed": true,
          "internalType": "address",
          "name": "newOwner",
          "type": "address"
        }
      ],
      "name": "OwnershipTransferred",
      "type": "event"
    },
    {
      "anonymous": false,
      "inputs": [
        {
          "indexed": true,
          "internalType": "address",
          "name": "from",
          "type": "address"
        },
        {
          "indexed": true,
          "internalType": "address",
          "name": "to",
          "type": "address"
        },
        {
          "indexed": false,
          "internalType": "uint256",
          "name": "value",
          "type": "uint256"
        }
      ],
      "name": "Transfer",
      "type": "event"
    },
    {
      "inputs": [
        {
          "internalType": "address",
          "name": "owner",
          "type": "address"
        },
        {
          "internalType": "address",
          "name": "spender",
          "type": "address"
        }
      ],
      "name": "allowance",
      "outputs": [
        {
          "internalType": "uint256",
          "name": "",
          "type": "uint256"
        }
      ],
      "stateMutability": "view",
      "type": "function"
    },
    {
      "inputs": [
        {
          "internalType": "address",
          "name": "spender",
          "type": "address"
        },
        {
          "internalType": "uint256",
          "name": "amount",
          "type": "uint256"
        }
      ],
      "name": "approve",
      "outputs": [
        {
          "internalType": "bool",
          "name": "",
          "type": "bool"
        }
      ],
      "stateMutability": "nonpayable",
      "type": "function"
    },
    {
      "inputs": [
        {
          "internalType": "address",
          "name": "account",
          "type": "address"
        }
      ],
      "name": "balanceOf",
      "outputs": [
        {
          "internalType": "uint256",
          "name": "",
          "type": "uint256"
        }
      ],
      "stateMutability": "view",
      "type": "function"
    },
    {
      "inputs": [],
      "name": "buyOnInitialOffering",
      "outputs": [
        {
          "internalType": "bool",
          "name": "",
          "type": "bool"
        }
      ],
      "stateMutability": "payable",
      "type": "function"
    },
    {
      "inputs": [],
      "name": "closePrimaryTokenSaleWindow",
      "outputs": [],
      "stateMutability": "nonpayable",
      "type": "function"
    },
    {
      "inputs": [],
      "name": "decimals",
      "outputs": [
        {
          "internalType": "uint8",
          "name": "",
          "type": "uint8"
        }
      ],
      "stateMutability": "view",
      "type": "function"
    },
    {
      "inputs": [
        {
          "internalType": "address",
          "name": "spender",
          "type": "address"
        },
        {
          "internalType": "uint256",
          "name": "subtractedValue",
          "type": "uint256"
        }
      ],
      "name": "decreaseAllowance",
      "outputs": [
        {
          "internalType": "bool",
          "name": "",
          "type": "bool"
        }
      ],
      "stateMutability": "nonpayable",
      "type": "function"
    },
    {
      "inputs": [
        {
          "internalType": "uint256",
          "name": "divEligibleTokenCount",
          "type": "uint256"
        },
        {
          "internalType": "address[]",
          "name": "dividendEligibleTokenHolders",
          "type": "address[]"
        }
      ],
      "name": "deposit",
      "outputs": [
        {
          "internalType": "bool",
          "name": "",
          "type": "bool"
        }
      ],
      "stateMutability": "payable",
      "type": "function"
    },
    {
      "inputs": [
        {
          "internalType": "address",
          "name": "spender",
          "type": "address"
        },
        {
          "internalType": "uint256",
          "name": "addedValue",
          "type": "uint256"
        }
      ],
      "name": "increaseAllowance",
      "outputs": [
        {
          "internalType": "bool",
          "name": "",
          "type": "bool"
        }
      ],
      "stateMutability": "nonpayable",
      "type": "function"
    },
    {
      "inputs": [],
      "name": "isPrimarySaleWindowOpen",
      "outputs": [
        {
          "internalType": "bool",
          "name": "",
          "type": "bool"
        }
      ],
      "stateMutability": "view",
      "type": "function"
    },
    {
      "inputs": [],
      "name": "name",
      "outputs": [
        {
          "internalType": "string",
          "name": "",
          "type": "string"
        }
      ],
      "stateMutability": "view",
      "type": "function"
    },
    {
      "inputs": [],
      "name": "numberOfTokenHolders",
      "outputs": [
        {
          "internalType": "uint256",
          "name": "",
          "type": "uint256"
        }
      ],
      "stateMutability": "view",
      "type": "function"
    },
    {
      "inputs": [],
      "name": "owner",
      "outputs": [
        {
          "internalType": "address",
          "name": "",
          "type": "address"
        }
      ],
      "stateMutability": "view",
      "type": "function"
    },
    {
      "inputs": [
        {
          "internalType": "uint256",
          "name": "_divEligibleTokenCount",
          "type": "uint256"
        },
        {
          "internalType": "address[]",
          "name": "dividendEligibleTokenHolders",
          "type": "address[]"
        }
      ],
      "name": "payDividends",
      "outputs": [],
      "stateMutability": "nonpayable",
      "type": "function"
    },
    {
      "inputs": [],
      "name": "renounceOwnership",
      "outputs": [],
      "stateMutability": "nonpayable",
      "type": "function"
    },
    {
      "inputs": [
        {
          "internalType": "bool",
          "name": "_autoPayDividends",
          "type": "bool"
        }
      ],
      "name": "setAutoPayDividends",
      "outputs": [],
      "stateMutability": "nonpayable",
      "type": "function"
    },
    {
      "inputs": [
        {
          "internalType": "uint256",
          "name": "_maxAllowedTokens",
          "type": "uint256"
        }
      ],
      "name": "setMaxTokenLimitPerHolder",
      "outputs": [],
      "stateMutability": "nonpayable",
      "type": "function"
    },
    {
      "inputs": [
        {
          "internalType": "uint256",
          "name": "_tokenPrice",
          "type": "uint256"
        }
      ],
      "name": "setTokenPrice",
      "outputs": [],
      "stateMutability": "nonpayable",
      "type": "function"
    },
    {
      "inputs": [],
      "name": "symbol",
      "outputs": [
        {
          "internalType": "string",
          "name": "",
          "type": "string"
        }
      ],
      "stateMutability": "view",
      "type": "function"
    },
    {
      "inputs": [],
      "name": "tokenHolders",
      "outputs": [
        {
          "internalType": "address[]",
          "name": "",
          "type": "address[]"
        }
      ],
      "stateMutability": "view",
      "type": "function"
    },
    {
      "inputs": [],
      "name": "tokenPrice",
      "outputs": [
        {
          "internalType": "uint256",
          "name": "",
          "type": "uint256"
        }
      ],
      "stateMutability": "view",
      "type": "function"
    },
    {
      "inputs": [],
      "name": "totalSupply",
      "outputs": [
        {
          "internalType": "uint256",
          "name": "",
          "type": "uint256"
        }
      ],
      "stateMutability": "view",
      "type": "function"
    },
    {
      "inputs": [
        {
          "internalType": "address",
          "name": "to",
          "type": "address"
        },
        {
          "internalType": "uint256",
          "name": "amount",
          "type": "uint256"
        }
      ],
      "name": "transfer",
      "outputs": [
        {
          "internalType": "bool",
          "name": "",
          "type": "bool"
        }
      ],
      "stateMutability": "nonpayable",
      "type": "function"
    },
    {
      "inputs": [
        {
          "internalType": "address",
          "name": "from",
          "type": "address"
        },
        {
          "internalType": "address",
          "name": "to",
          "type": "address"
        },
        {
          "internalType": "uint256",
          "name": "amount",
          "type": "uint256"
        }
      ],
      "name": "transferFrom",
      "outputs": [
        {
          "internalType": "bool",
          "name": "",
          "type": "bool"
        }
      ],
      "stateMutability": "nonpayable",
      "type": "function"
    },
    {
      "inputs": [
        {
          "internalType": "address",
          "name": "newOwner",
          "type": "address"
        }
      ],
      "name": "transferOwnership",
      "outputs": [],
      "stateMutability": "nonpayable",
      "type": "function"
    }
  ],
  "bytecode": "0x608060405260405162003b5438038062003b54833981810160405281019062000029919062000a8d565b6040518060400160405280600881526020017f427265772044414f0000000000000000000000000000000000000000000000008152506040518060400160405280600481526020017f42524557000000000000000000000000000000000000000000000000000000008152508160039080519060200190620000ad929190620009af565b508060049080519060200190620000c6929190620009af565b505050620000e9620000dd6200017460201b60201c565b6200017c60201b60201c565b6200010033856200024260201b620012411760201c565b6001600960006101000a81548160ff02191690831515021790555082600d60006101000a81548173ffffffffffffffffffffffffffffffffffffffff021916908373ffffffffffffffffffffffffffffffffffffffff16021790555080600a81905550816008819055505050505062000de0565b600033905090565b6000600560009054906101000a900473ffffffffffffffffffffffffffffffffffffffff16905081600560006101000a81548173ffffffffffffffffffffffffffffffffffffffff021916908373ffffffffffffffffffffffffffffffffffffffff1602179055508173ffffffffffffffffffffffffffffffffffffffff168173ffffffffffffffffffffffffffffffffffffffff167f8be0079c531659141344cd1fd0a4f28419497f9722a3daafe3b4186f6b6457e060405160405180910390a35050565b600073ffffffffffffffffffffffffffffffffffffffff168273ffffffffffffffffffffffffffffffffffffffff161415620002b5576040517f08c379a0000000000000000000000000000000000000000000000000000000008152600401620002ac9062000b7a565b60405180910390fd5b620002c960008383620003bb60201b60201c565b8060026000828254620002dd919062000bca565b92505081905550806000808473ffffffffffffffffffffffffffffffffffffffff1673ffffffffffffffffffffffffffffffffffffffff168152602001908152602001600020600082825462000334919062000bca565b925050819055508173ffffffffffffffffffffffffffffffffffffffff16600073ffffffffffffffffffffffffffffffffffffffff167fddf252ad1be2c89b69c2b068fc378daa952ba7f163c4a11628f55a4df523b3ef836040516200039b919062000b9c565b60405180910390a3620003b7600083836200046f60201b60201c565b5050565b620003cb6200093d60201b60201c565b73ffffffffffffffffffffffffffffffffffffffff168273ffffffffffffffffffffffffffffffffffffffff16146200046a57600062000411836200096760201b60201c565b9050600a54828262000424919062000bca565b111562000468576040517f08c379a00000000000000000000000000000000000000000000000000000000081526004016200045f9062000b58565b60405180910390fd5b505b505050565b8062000481836200096760201b60201c565b148015620004dc5750600760008373ffffffffffffffffffffffffffffffffffffffff1673ffffffffffffffffffffffffffffffffffffffff16815260200190815260200160002060000160009054906101000a900460ff16155b15620005dd576006829080600181540180825580915050600190039060005260206000200160009091909190916101000a81548173ffffffffffffffffffffffffffffffffffffffff021916908373ffffffffffffffffffffffffffffffffffffffff160217905550604051806040016040528060011515815260200160016006805490506200056d919062000c27565b815250600760008473ffffffffffffffffffffffffffffffffffffffff1673ffffffffffffffffffffffffffffffffffffffff16815260200190815260200160002060008201518160000160006101000a81548160ff021916908315150217905550602082015181600101559050505b6000620005f0846200096760201b60201c565b1480156200064a5750600760008473ffffffffffffffffffffffffffffffffffffffff1673ffffffffffffffffffffffffffffffffffffffff16815260200190815260200160002060000160009054906101000a900460ff165b1562000861576000600760008573ffffffffffffffffffffffffffffffffffffffff1673ffffffffffffffffffffffffffffffffffffffff16815260200190815260200160002060010154905060066001600680549050620006ad919062000c27565b81548110620006e5577f4e487b7100000000000000000000000000000000000000000000000000000000600052603260045260246000fd5b9060005260206000200160009054906101000a900473ffffffffffffffffffffffffffffffffffffffff16600682815481106200074b577f4e487b7100000000000000000000000000000000000000000000000000000000600052603260045260246000fd5b9060005260206000200160006101000a81548173ffffffffffffffffffffffffffffffffffffffff021916908373ffffffffffffffffffffffffffffffffffffffff1602179055506006805480620007cc577f4e487b7100000000000000000000000000000000000000000000000000000000600052603160045260246000fd5b6001900381819060005260206000200160006101000a81549073ffffffffffffffffffffffffffffffffffffffff02191690559055600760008573ffffffffffffffffffffffffffffffffffffffff1673ffffffffffffffffffffffffffffffffffffffff168152602001908152602001600020600080820160006101000a81549060ff021916905560018201600090555050505b620008716200093d60201b60201c565b73ffffffffffffffffffffffffffffffffffffffff168373ffffffffffffffffffffffffffffffffffffffff161462000938578173ffffffffffffffffffffffffffffffffffffffff167fed8083bdfe53754f042b4cbcf1eac191f194911af5a2a29d11eef85a3ad4dac460405160405180910390a28173ffffffffffffffffffffffffffffffffffffffff167fc3518349023ac389b39ead5037b2f9637f218b46062f93c296cfb10078397341826040516200092f919062000b9c565b60405180910390a25b505050565b6000600560009054906101000a900473ffffffffffffffffffffffffffffffffffffffff16905090565b60008060008373ffffffffffffffffffffffffffffffffffffffff1673ffffffffffffffffffffffffffffffffffffffff168152602001908152602001600020549050919050565b828054620009bd9062000ca0565b90600052602060002090601f016020900481019282620009e1576000855562000a2d565b82601f10620009fc57805160ff191683800117855562000a2d565b8280016001018555821562000a2d579182015b8281111562000a2c57825182559160200191906001019062000a0f565b5b50905062000a3c919062000a40565b5090565b5b8082111562000a5b57600081600090555060010162000a41565b5090565b60008151905062000a708162000dac565b92915050565b60008151905062000a878162000dc6565b92915050565b6000806000806080858703121562000aa457600080fd5b600062000ab48782880162000a76565b945050602062000ac78782880162000a5f565b935050604062000ada8782880162000a76565b925050606062000aed8782880162000a76565b91505092959194509250565b600062000b0860398362000bb9565b915062000b158262000d34565b604082019050919050565b600062000b2f601f8362000bb9565b915062000b3c8262000d83565b602082019050919050565b62000b528162000c96565b82525050565b6000602082019050818103600083015262000b738162000af9565b9050919050565b6000602082019050818103600083015262000b958162000b20565b9050919050565b600060208201905062000bb3600083018462000b47565b92915050565b600082825260208201905092915050565b600062000bd78262000c96565b915062000be48362000c96565b9250827fffffffffffffffffffffffffffffffffffffffffffffffffffffffffffffffff0382111562000c1c5762000c1b62000cd6565b5b828201905092915050565b600062000c348262000c96565b915062000c418362000c96565b92508282101562000c575762000c5662000cd6565b5b828203905092915050565b600062000c6f8262000c76565b9050919050565b600073ffffffffffffffffffffffffffffffffffffffff82169050919050565b6000819050919050565b6000600282049050600182168062000cb957607f821691505b6020821081141562000cd05762000ccf62000d05565b5b50919050565b7f4e487b7100000000000000000000000000000000000000000000000000000000600052601160045260246000fd5b7f4e487b7100000000000000000000000000000000000000000000000000000000600052602260045260246000fd5b7f5075726368617365206c696d6974206578636565647320616c6c6f7761626c6560008201527f20746f6b656e2062616c616e63652070657220686f6c64657200000000000000602082015250565b7f45524332303a206d696e7420746f20746865207a65726f206164647265737300600082015250565b62000db78162000c62565b811462000dc357600080fd5b50565b62000dd18162000c96565b811462000ddd57600080fd5b50565b612d648062000df06000396000f3fe6080604052600436106101665760003560e01c80637f937dbc116100d1578063a0eb38991161008a578063ace508e111610064578063ace508e114610535578063dd62ed3e1461055e578063e67c94c51461059b578063f2fde38b146105b957610166565b8063a0eb3899146104a4578063a457c2d7146104bb578063a9059cbb146104f857610166565b80637f937dbc1461039f5780637ff9b596146103c857806385d7cf86146103f35780638da5cb5b14610423578063953669be1461044e57806395d89b411461047957610166565b8063243d820611610123578063243d820614610291578063313ce567146102ba57806339509351146102e55780636a61e5fc1461032257806370a082311461034b578063715018a61461038857610166565b806306fdde031461016b578063095ea7b3146101965780630eda14cc146101d3578063178ef307146101fe57806318160ddd1461022957806323b872dd14610254575b600080fd5b34801561017757600080fd5b506101806105e2565b60405161018d9190612424565b60405180910390f35b3480156101a257600080fd5b506101bd60048036038101906101b89190611fca565b610674565b6040516101ca9190612409565b60405180910390f35b3480156101df57600080fd5b506101e8610697565b6040516101f59190612409565b60405180910390f35b34801561020a57600080fd5b506102136106ae565b6040516102209190612606565b60405180910390f35b34801561023557600080fd5b5061023e6106bb565b60405161024b9190612606565b60405180910390f35b34801561026057600080fd5b5061027b60048036038101906102769190611f7b565b6106c5565b6040516102889190612409565b60405180910390f35b34801561029d57600080fd5b506102b860048036038101906102b3919061202f565b6106f4565b005b3480156102c657600080fd5b506102cf61077a565b6040516102dc9190612621565b60405180910390f35b3480156102f157600080fd5b5061030c60048036038101906103079190611fca565b610783565b6040516103199190612409565b60405180910390f35b34801561032e57600080fd5b506103496004803603810190610344919061202f565b6107ba565b005b34801561035757600080fd5b50610372600480360381019061036d9190611f16565b610840565b60405161037f9190612606565b60405180910390f35b34801561039457600080fd5b5061039d610888565b005b3480156103ab57600080fd5b506103c660048036038101906103c19190612006565b610910565b005b3480156103d457600080fd5b506103dd6109a9565b6040516103ea9190612606565b60405180910390f35b61040d60048036038101906104089190612058565b6109af565b60405161041a9190612409565b60405180910390f35b34801561042f57600080fd5b50610438610aee565b60405161044591906123cc565b60405180910390f35b34801561045a57600080fd5b50610463610b18565b60405161047091906123e7565b60405180910390f35b34801561048557600080fd5b5061048e610ba6565b60405161049b9190612424565b60405180910390f35b3480156104b057600080fd5b506104b9610c38565b005b3480156104c757600080fd5b506104e260048036038101906104dd9190611fca565b610cd1565b6040516104ef9190612409565b60405180910390f35b34801561050457600080fd5b5061051f600480360381019061051a9190611fca565b610d48565b60405161052c9190612409565b60405180910390f35b34801561054157600080fd5b5061055c60048036038101906105579190612058565b610d6b565b005b34801561056a57600080fd5b5061058560048036038101906105809190611f3f565b61103e565b6040516105929190612606565b60405180910390f35b6105a36110c5565b6040516105b09190612409565b60405180910390f35b3480156105c557600080fd5b506105e060048036038101906105db9190611f16565b611149565b005b6060600380546105f190612839565b80601f016020809104026020016040519081016040528092919081815260200182805461061d90612839565b801561066a5780601f1061063f5761010080835404028352916020019161066a565b820191906000526020600020905b81548152906001019060200180831161064d57829003601f168201915b5050505050905090565b60008061067f6113a1565b905061068c8185856113a9565b600191505092915050565b6000600960009054906101000a900460ff16905090565b6000600680549050905090565b6000600254905090565b6000806106d06113a1565b90506106dd858285611574565b6106e8858585611600565b60019150509392505050565b6106fc6113a1565b73ffffffffffffffffffffffffffffffffffffffff1661071a610aee565b73ffffffffffffffffffffffffffffffffffffffff1614610770576040517f08c379a000000000000000000000000000000000000000000000000000000000815260040161076790612526565b60405180910390fd5b80600a8190555050565b60006012905090565b60008061078e6113a1565b90506107af8185856107a0858961103e565b6107aa919061269c565b6113a9565b600191505092915050565b6107c26113a1565b73ffffffffffffffffffffffffffffffffffffffff166107e0610aee565b73ffffffffffffffffffffffffffffffffffffffff1614610836576040517f08c379a000000000000000000000000000000000000000000000000000000000815260040161082d90612526565b60405180910390fd5b8060088190555050565b60008060008373ffffffffffffffffffffffffffffffffffffffff1673ffffffffffffffffffffffffffffffffffffffff168152602001908152602001600020549050919050565b6108906113a1565b73ffffffffffffffffffffffffffffffffffffffff166108ae610aee565b73ffffffffffffffffffffffffffffffffffffffff1614610904576040517f08c379a00000000000000000000000000000000000000000000000000000000081526004016108fb90612526565b60405180910390fd5b61090e6000611881565b565b6109186113a1565b73ffffffffffffffffffffffffffffffffffffffff16610936610aee565b73ffffffffffffffffffffffffffffffffffffffff161461098c576040517f08c379a000000000000000000000000000000000000000000000000000000000815260040161098390612526565b60405180910390fd5b80600b60006101000a81548160ff02191690831515021790555050565b60085481565b60006109b96113a1565b73ffffffffffffffffffffffffffffffffffffffff166109d7610aee565b73ffffffffffffffffffffffffffffffffffffffff1614610a2d576040517f08c379a0000000000000000000000000000000000000000000000000000000008152600401610a2490612526565b60405180910390fd5b6000600d60009054906101000a900473ffffffffffffffffffffffffffffffffffffffff1673ffffffffffffffffffffffffffffffffffffffff1634604051610a75906123b7565b60006040518083038185875af1925050503d8060008114610ab2576040519150601f19603f3d011682016040523d82523d6000602084013e610ab7565b606091505b5050905060011515600b60009054906101000a900460ff1615151415610ae357610ae2858585610d6b565b5b809150509392505050565b6000600560009054906101000a900473ffffffffffffffffffffffffffffffffffffffff16905090565b60606006805480602002602001604051908101604052809291908181526020018280548015610b9c57602002820191906000526020600020905b8160009054906101000a900473ffffffffffffffffffffffffffffffffffffffff1673ffffffffffffffffffffffffffffffffffffffff1681526020019060010190808311610b52575b5050505050905090565b606060048054610bb590612839565b80601f0160208091040260200160405190810160405280929190818152602001828054610be190612839565b8015610c2e5780601f10610c0357610100808354040283529160200191610c2e565b820191906000526020600020905b815481529060010190602001808311610c1157829003601f168201915b5050505050905090565b610c406113a1565b73ffffffffffffffffffffffffffffffffffffffff16610c5e610aee565b73ffffffffffffffffffffffffffffffffffffffff1614610cb4576040517f08c379a0000000000000000000000000000000000000000000000000000000008152600401610cab90612526565b60405180910390fd5b6000600960006101000a81548160ff021916908315150217905550565b600080610cdc6113a1565b90506000610cea828661103e565b905083811015610d2f576040517f08c379a0000000000000000000000000000000000000000000000000000000008152600401610d26906125c6565b60405180910390fd5b610d3c82868684036113a9565b60019250505092915050565b600080610d536113a1565b9050610d60818585611600565b600191505092915050565b610d736113a1565b73ffffffffffffffffffffffffffffffffffffffff16610d91610aee565b73ffffffffffffffffffffffffffffffffffffffff1614610de7576040517f08c379a0000000000000000000000000000000000000000000000000000000008152600401610dde90612526565b60405180910390fd5b600c54600d60009054906101000a900473ffffffffffffffffffffffffffffffffffffffff1673ffffffffffffffffffffffffffffffffffffffff16311015610e65576040517f08c379a0000000000000000000000000000000000000000000000000000000008152600401610e5c90612506565b60405180910390fd5b600083600d60009054906101000a900473ffffffffffffffffffffffffffffffffffffffff1673ffffffffffffffffffffffffffffffffffffffff1631610eac91906126f2565b9050600083839050905060005b81811015611036576000858583818110610efc577f4e487b7100000000000000000000000000000000000000000000000000000000600052603260045260246000fd5b9050602002016020810190610f119190611f16565b73ffffffffffffffffffffffffffffffffffffffff1684610f7e888886818110610f64577f4e487b7100000000000000000000000000000000000000000000000000000000600052603260045260246000fd5b9050602002016020810190610f799190611f16565b610840565b610f889190612723565b604051610f94906123b7565b60006040518083038185875af1925050503d8060008114610fd1576040519150601f19603f3d011682016040523d82523d6000602084013e610fd6565b606091505b50509050600015158115151415611022576040517f08c379a000000000000000000000000000000000000000000000000000000000815260040161101990612566565b60405180910390fd5b50808061102e9061286b565b915050610eb9565b505050505050565b6000600160008473ffffffffffffffffffffffffffffffffffffffff1673ffffffffffffffffffffffffffffffffffffffff16815260200190815260200160002060008373ffffffffffffffffffffffffffffffffffffffff1673ffffffffffffffffffffffffffffffffffffffff16815260200190815260200160002054905092915050565b600060011515600960009054906101000a900460ff1615151461111d576040517f08c379a000000000000000000000000000000000000000000000000000000000815260040161111490612466565b60405180910390fd5b60006008543461112d91906126f2565b905061114161113a610aee565b3383611600565b600191505090565b6111516113a1565b73ffffffffffffffffffffffffffffffffffffffff1661116f610aee565b73ffffffffffffffffffffffffffffffffffffffff16146111c5576040517f08c379a00000000000000000000000000000000000000000000000000000000081526004016111bc90612526565b60405180910390fd5b600073ffffffffffffffffffffffffffffffffffffffff168173ffffffffffffffffffffffffffffffffffffffff161415611235576040517f08c379a000000000000000000000000000000000000000000000000000000000815260040161122c90612486565b60405180910390fd5b61123e81611881565b50565b600073ffffffffffffffffffffffffffffffffffffffff168273ffffffffffffffffffffffffffffffffffffffff1614156112b1576040517f08c379a00000000000000000000000000000000000000000000000000000000081526004016112a8906125e6565b60405180910390fd5b6112bd60008383611947565b80600260008282546112cf919061269c565b92505081905550806000808473ffffffffffffffffffffffffffffffffffffffff1673ffffffffffffffffffffffffffffffffffffffff1681526020019081526020016000206000828254611324919061269c565b925050819055508173ffffffffffffffffffffffffffffffffffffffff16600073ffffffffffffffffffffffffffffffffffffffff167fddf252ad1be2c89b69c2b068fc378daa952ba7f163c4a11628f55a4df523b3ef836040516113899190612606565b60405180910390a361139d600083836119e5565b5050565b600033905090565b600073ffffffffffffffffffffffffffffffffffffffff168373ffffffffffffffffffffffffffffffffffffffff161415611419576040517f08c379a0000000000000000000000000000000000000000000000000000000008152600401611410906125a6565b60405180910390fd5b600073ffffffffffffffffffffffffffffffffffffffff168273ffffffffffffffffffffffffffffffffffffffff161415611489576040517f08c379a0000000000000000000000000000000000000000000000000000000008152600401611480906124a6565b60405180910390fd5b80600160008573ffffffffffffffffffffffffffffffffffffffff1673ffffffffffffffffffffffffffffffffffffffff16815260200190815260200160002060008473ffffffffffffffffffffffffffffffffffffffff1673ffffffffffffffffffffffffffffffffffffffff168152602001908152602001600020819055508173ffffffffffffffffffffffffffffffffffffffff168373ffffffffffffffffffffffffffffffffffffffff167f8c5be1e5ebec7d5bd14f71427d1e84f3dd0314c0f7b2291e5b200ac8c7c3b925836040516115679190612606565b60405180910390a3505050565b6000611580848461103e565b90507fffffffffffffffffffffffffffffffffffffffffffffffffffffffffffffffff81146115fa57818110156115ec576040517f08c379a00000000000000000000000000000000000000000000000000000000081526004016115e3906124c6565b60405180910390fd5b6115f984848484036113a9565b5b50505050565b600073ffffffffffffffffffffffffffffffffffffffff168373ffffffffffffffffffffffffffffffffffffffff161415611670576040517f08c379a000000000000000000000000000000000000000000000000000000000815260040161166790612546565b60405180910390fd5b600073ffffffffffffffffffffffffffffffffffffffff168273ffffffffffffffffffffffffffffffffffffffff1614156116e0576040517f08c379a00000000000000000000000000000000000000000000000000000000081526004016116d790612446565b60405180910390fd5b6116eb838383611947565b60008060008573ffffffffffffffffffffffffffffffffffffffff1673ffffffffffffffffffffffffffffffffffffffff16815260200190815260200160002054905081811015611771576040517f08c379a0000000000000000000000000000000000000000000000000000000008152600401611768906124e6565b60405180910390fd5b8181036000808673ffffffffffffffffffffffffffffffffffffffff1673ffffffffffffffffffffffffffffffffffffffff16815260200190815260200160002081905550816000808573ffffffffffffffffffffffffffffffffffffffff1673ffffffffffffffffffffffffffffffffffffffff1681526020019081526020016000206000828254611804919061269c565b925050819055508273ffffffffffffffffffffffffffffffffffffffff168473ffffffffffffffffffffffffffffffffffffffff167fddf252ad1be2c89b69c2b068fc378daa952ba7f163c4a11628f55a4df523b3ef846040516118689190612606565b60405180910390a361187b8484846119e5565b50505050565b6000600560009054906101000a900473ffffffffffffffffffffffffffffffffffffffff16905081600560006101000a81548173ffffffffffffffffffffffffffffffffffffffff021916908373ffffffffffffffffffffffffffffffffffffffff1602179055508173ffffffffffffffffffffffffffffffffffffffff168173ffffffffffffffffffffffffffffffffffffffff167f8be0079c531659141344cd1fd0a4f28419497f9722a3daafe3b4186f6b6457e060405160405180910390a35050565b61194f610aee565b73ffffffffffffffffffffffffffffffffffffffff168273ffffffffffffffffffffffffffffffffffffffff16146119e057600061198c83610840565b9050600a54828261199d919061269c565b11156119de576040517f08c379a00000000000000000000000000000000000000000000000000000000081526004016119d590612586565b60405180910390fd5b505b505050565b806119ef83610840565b148015611a495750600760008373ffffffffffffffffffffffffffffffffffffffff1673ffffffffffffffffffffffffffffffffffffffff16815260200190815260200160002060000160009054906101000a900460ff16155b15611b47576006829080600181540180825580915050600190039060005260206000200160009091909190916101000a81548173ffffffffffffffffffffffffffffffffffffffff021916908373ffffffffffffffffffffffffffffffffffffffff16021790555060405180604001604052806001151581526020016001600680549050611ad7919061277d565b815250600760008473ffffffffffffffffffffffffffffffffffffffff1673ffffffffffffffffffffffffffffffffffffffff16815260200190815260200160002060008201518160000160006101000a81548160ff021916908315150217905550602082015181600101559050505b6000611b5284610840565b148015611bab5750600760008473ffffffffffffffffffffffffffffffffffffffff1673ffffffffffffffffffffffffffffffffffffffff16815260200190815260200160002060000160009054906101000a900460ff165b15611dbc576000600760008573ffffffffffffffffffffffffffffffffffffffff1673ffffffffffffffffffffffffffffffffffffffff16815260200190815260200160002060010154905060066001600680549050611c0b919061277d565b81548110611c42577f4e487b7100000000000000000000000000000000000000000000000000000000600052603260045260246000fd5b9060005260206000200160009054906101000a900473ffffffffffffffffffffffffffffffffffffffff1660068281548110611ca7577f4e487b7100000000000000000000000000000000000000000000000000000000600052603260045260246000fd5b9060005260206000200160006101000a81548173ffffffffffffffffffffffffffffffffffffffff021916908373ffffffffffffffffffffffffffffffffffffffff1602179055506006805480611d27577f4e487b7100000000000000000000000000000000000000000000000000000000600052603160045260246000fd5b6001900381819060005260206000200160006101000a81549073ffffffffffffffffffffffffffffffffffffffff02191690559055600760008573ffffffffffffffffffffffffffffffffffffffff1673ffffffffffffffffffffffffffffffffffffffff168152602001908152602001600020600080820160006101000a81549060ff021916905560018201600090555050505b611dc4610aee565b73ffffffffffffffffffffffffffffffffffffffff168373ffffffffffffffffffffffffffffffffffffffff1614611e88578173ffffffffffffffffffffffffffffffffffffffff167fed8083bdfe53754f042b4cbcf1eac191f194911af5a2a29d11eef85a3ad4dac460405160405180910390a28173ffffffffffffffffffffffffffffffffffffffff167fc3518349023ac389b39ead5037b2f9637f218b46062f93c296cfb1007839734182604051611e7f9190612606565b60405180910390a25b505050565b600081359050611e9c81612ce9565b92915050565b60008083601f840112611eb457600080fd5b8235905067ffffffffffffffff811115611ecd57600080fd5b602083019150836020820283011115611ee557600080fd5b9250929050565b600081359050611efb81612d00565b92915050565b600081359050611f1081612d17565b92915050565b600060208284031215611f2857600080fd5b6000611f3684828501611e8d565b91505092915050565b60008060408385031215611f5257600080fd5b6000611f6085828601611e8d565b9250506020611f7185828601611e8d565b9150509250929050565b600080600060608486031215611f9057600080fd5b6000611f9e86828701611e8d565b9350506020611faf86828701611e8d565b9250506040611fc086828701611f01565b9150509250925092565b60008060408385031215611fdd57600080fd5b6000611feb85828601611e8d565b9250506020611ffc85828601611f01565b9150509250929050565b60006020828403121561201857600080fd5b600061202684828501611eec565b91505092915050565b60006020828403121561204157600080fd5b600061204f84828501611f01565b91505092915050565b60008060006040848603121561206d57600080fd5b600061207b86828701611f01565b935050602084013567ffffffffffffffff81111561209857600080fd5b6120a486828701611ea2565b92509250509250925092565b60006120bc83836120c8565b60208301905092915050565b6120d1816127b1565b82525050565b6120e0816127b1565b82525050565b60006120f18261264c565b6120fb818561266f565b93506121068361263c565b8060005b8381101561213757815161211e88826120b0565b975061212983612662565b92505060018101905061210a565b5085935050505092915050565b61214d816127c3565b82525050565b600061215e82612657565b612168818561268b565b9350612178818560208601612806565b61218181612941565b840191505092915050565b600061219960238361268b565b91506121a482612952565b604082019050919050565b60006121bc601b8361268b565b91506121c7826129a1565b602082019050919050565b60006121df60268361268b565b91506121ea826129ca565b604082019050919050565b600061220260228361268b565b915061220d82612a19565b604082019050919050565b6000612225601d8361268b565b915061223082612a68565b602082019050919050565b600061224860268361268b565b915061225382612a91565b604082019050919050565b600061226b60238361268b565b915061227682612ae0565b604082019050919050565b600061228e60208361268b565b915061229982612b2f565b602082019050919050565b60006122b160258361268b565b91506122bc82612b58565b604082019050919050565b60006122d4601d8361268b565b91506122df82612ba7565b602082019050919050565b60006122f760398361268b565b915061230282612bd0565b604082019050919050565b600061231a600083612680565b915061232582612c1f565b600082019050919050565b600061233d60248361268b565b915061234882612c22565b604082019050919050565b600061236060258361268b565b915061236b82612c71565b604082019050919050565b6000612383601f8361268b565b915061238e82612cc0565b602082019050919050565b6123a2816127ef565b82525050565b6123b1816127f9565b82525050565b60006123c28261230d565b9150819050919050565b60006020820190506123e160008301846120d7565b92915050565b6000602082019050818103600083015261240181846120e6565b905092915050565b600060208201905061241e6000830184612144565b92915050565b6000602082019050818103600083015261243e8184612153565b905092915050565b6000602082019050818103600083015261245f8161218c565b9050919050565b6000602082019050818103600083015261247f816121af565b9050919050565b6000602082019050818103600083015261249f816121d2565b9050919050565b600060208201905081810360008301526124bf816121f5565b9050919050565b600060208201905081810360008301526124df81612218565b9050919050565b600060208201905081810360008301526124ff8161223b565b9050919050565b6000602082019050818103600083015261251f8161225e565b9050919050565b6000602082019050818103600083015261253f81612281565b9050919050565b6000602082019050818103600083015261255f816122a4565b9050919050565b6000602082019050818103600083015261257f816122c7565b9050919050565b6000602082019050818103600083015261259f816122ea565b9050919050565b600060208201905081810360008301526125bf81612330565b9050919050565b600060208201905081810360008301526125df81612353565b9050919050565b600060208201905081810360008301526125ff81612376565b9050919050565b600060208201905061261b6000830184612399565b92915050565b600060208201905061263660008301846123a8565b92915050565b6000819050602082019050919050565b600081519050919050565b600081519050919050565b6000602082019050919050565b600082825260208201905092915050565b600081905092915050565b600082825260208201905092915050565b60006126a7826127ef565b91506126b2836127ef565b9250827fffffffffffffffffffffffffffffffffffffffffffffffffffffffffffffffff038211156126e7576126e66128b4565b5b828201905092915050565b60006126fd826127ef565b9150612708836127ef565b925082612718576127176128e3565b5b828204905092915050565b600061272e826127ef565b9150612739836127ef565b9250817fffffffffffffffffffffffffffffffffffffffffffffffffffffffffffffffff0483118215151615612772576127716128b4565b5b828202905092915050565b6000612788826127ef565b9150612793836127ef565b9250828210156127a6576127a56128b4565b5b828203905092915050565b60006127bc826127cf565b9050919050565b60008115159050919050565b600073ffffffffffffffffffffffffffffffffffffffff82169050919050565b6000819050919050565b600060ff82169050919050565b60005b83811015612824578082015181840152602081019050612809565b83811115612833576000848401525b50505050565b6000600282049050600182168061285157607f821691505b6020821081141561286557612864612912565b5b50919050565b6000612876826127ef565b91507fffffffffffffffffffffffffffffffffffffffffffffffffffffffffffffffff8214156128a9576128a86128b4565b5b600182019050919050565b7f4e487b7100000000000000000000000000000000000000000000000000000000600052601160045260246000fd5b7f4e487b7100000000000000000000000000000000000000000000000000000000600052601260045260246000fd5b7f4e487b7100000000000000000000000000000000000000000000000000000000600052602260045260246000fd5b6000601f19601f8301169050919050565b7f45524332303a207472616e7366657220746f20746865207a65726f206164647260008201527f6573730000000000000000000000000000000000000000000000000000000000602082015250565b7f546f6b656e2053616c652057696e646f7720697320636c6f7365640000000000600082015250565b7f4f776e61626c653a206e6577206f776e657220697320746865207a65726f206160008201527f6464726573730000000000000000000000000000000000000000000000000000602082015250565b7f45524332303a20617070726f766520746f20746865207a65726f20616464726560008201527f7373000000000000000000000000000000000000000000000000000000000000602082015250565b7f45524332303a20696e73756666696369656e7420616c6c6f77616e6365000000600082015250565b7f45524332303a207472616e7366657220616d6f756e742065786365656473206260008201527f616c616e63650000000000000000000000000000000000000000000000000000602082015250565b7f4e6f7420656e6f7567682062616c616e636520746f207061792064697669646560008201527f6e64730000000000000000000000000000000000000000000000000000000000602082015250565b7f4f776e61626c653a2063616c6c6572206973206e6f7420746865206f776e6572600082015250565b7f45524332303a207472616e736665722066726f6d20746865207a65726f20616460008201527f6472657373000000000000000000000000000000000000000000000000000000602082015250565b7f4572726f7220647572696e67206469766964656e64207061796f757473000000600082015250565b7f5075726368617365206c696d6974206578636565647320616c6c6f7761626c6560008201527f20746f6b656e2062616c616e63652070657220686f6c64657200000000000000602082015250565b50565b7f45524332303a20617070726f76652066726f6d20746865207a65726f2061646460008201527f7265737300000000000000000000000000000000000000000000000000000000602082015250565b7f45524332303a2064656372656173656420616c6c6f77616e63652062656c6f7760008201527f207a65726f000000000000000000000000000000000000000000000000000000602082015250565b7f45524332303a206d696e7420746f20746865207a65726f206164647265737300600082015250565b612cf2816127b1565b8114612cfd57600080fd5b50565b612d09816127c3565b8114612d1457600080fd5b50565b612d20816127ef565b8114612d2b57600080fd5b5056fea2646970667358221220e95bfeeb165e3a572a5054cdea9cd98ca4851716d434bfc8105913e6340bf13464736f6c63430008040033",
  "linkReferences": {},
  "deployedLinkReferences": {}
}